{
  "_format": "hh-sol-artifact-1",
  "contractName": "MyNBToken",
  "sourceName": "contracts/MyNBToken.sol",
  "abi": [
    {
      "inputs": [
        {
          "internalType": "address",
          "name": "initialOwner",
          "type": "address"
        }
      ],
      "stateMutability": "nonpayable",
      "type": "constructor"
    },
    {
      "inputs": [],
      "name": "CheckpointUnorderedInsertion",
      "type": "error"
    },
    {
      "inputs": [],
      "name": "ECDSAInvalidSignature",
      "type": "error"
    },
    {
      "inputs": [
        {
          "internalType": "uint256",
          "name": "length",
          "type": "uint256"
        }
      ],
      "name": "ECDSAInvalidSignatureLength",
      "type": "error"
    },
    {
      "inputs": [
        {
          "internalType": "bytes32",
          "name": "s",
          "type": "bytes32"
        }
      ],
      "name": "ECDSAInvalidSignatureS",
      "type": "error"
    },
    {
      "inputs": [
        {
          "internalType": "uint256",
          "name": "increasedSupply",
          "type": "uint256"
        },
        {
          "internalType": "uint256",
          "name": "cap",
          "type": "uint256"
        }
      ],
      "name": "ERC20ExceededSafeSupply",
      "type": "error"
    },
    {
      "inputs": [
        {
          "internalType": "address",
          "name": "spender",
          "type": "address"
        },
        {
          "internalType": "uint256",
          "name": "allowance",
          "type": "uint256"
        },
        {
          "internalType": "uint256",
          "name": "needed",
          "type": "uint256"
        }
      ],
      "name": "ERC20InsufficientAllowance",
      "type": "error"
    },
    {
      "inputs": [
        {
          "internalType": "address",
          "name": "sender",
          "type": "address"
        },
        {
          "internalType": "uint256",
          "name": "balance",
          "type": "uint256"
        },
        {
          "internalType": "uint256",
          "name": "needed",
          "type": "uint256"
        }
      ],
      "name": "ERC20InsufficientBalance",
      "type": "error"
    },
    {
      "inputs": [
        {
          "internalType": "address",
          "name": "approver",
          "type": "address"
        }
      ],
      "name": "ERC20InvalidApprover",
      "type": "error"
    },
    {
      "inputs": [
        {
          "internalType": "address",
          "name": "receiver",
          "type": "address"
        }
      ],
      "name": "ERC20InvalidReceiver",
      "type": "error"
    },
    {
      "inputs": [
        {
          "internalType": "address",
          "name": "sender",
          "type": "address"
        }
      ],
      "name": "ERC20InvalidSender",
      "type": "error"
    },
    {
      "inputs": [
        {
          "internalType": "address",
          "name": "spender",
          "type": "address"
        }
      ],
      "name": "ERC20InvalidSpender",
      "type": "error"
    },
    {
      "inputs": [
        {
          "internalType": "uint256",
          "name": "deadline",
          "type": "uint256"
        }
      ],
      "name": "ERC2612ExpiredSignature",
      "type": "error"
    },
    {
      "inputs": [
        {
          "internalType": "address",
          "name": "signer",
          "type": "address"
        },
        {
          "internalType": "address",
          "name": "owner",
          "type": "address"
        }
      ],
      "name": "ERC2612InvalidSigner",
      "type": "error"
    },
    {
      "inputs": [
        {
          "internalType": "uint256",
          "name": "timepoint",
          "type": "uint256"
        },
        {
          "internalType": "uint48",
          "name": "clock",
          "type": "uint48"
        }
      ],
      "name": "ERC5805FutureLookup",
      "type": "error"
    },
    {
      "inputs": [],
      "name": "ERC6372InconsistentClock",
      "type": "error"
    },
    {
      "inputs": [
        {
          "internalType": "address",
          "name": "account",
          "type": "address"
        },
        {
          "internalType": "uint256",
          "name": "currentNonce",
          "type": "uint256"
        }
      ],
      "name": "InvalidAccountNonce",
      "type": "error"
    },
    {
      "inputs": [],
      "name": "InvalidShortString",
      "type": "error"
    },
    {
      "inputs": [
        {
          "internalType": "address",
          "name": "owner",
          "type": "address"
        }
      ],
      "name": "OwnableInvalidOwner",
      "type": "error"
    },
    {
      "inputs": [
        {
          "internalType": "address",
          "name": "account",
          "type": "address"
        }
      ],
      "name": "OwnableUnauthorizedAccount",
      "type": "error"
    },
    {
      "inputs": [
        {
          "internalType": "uint8",
          "name": "bits",
          "type": "uint8"
        },
        {
          "internalType": "uint256",
          "name": "value",
          "type": "uint256"
        }
      ],
      "name": "SafeCastOverflowedUintDowncast",
      "type": "error"
    },
    {
      "inputs": [
        {
          "internalType": "string",
          "name": "str",
          "type": "string"
        }
      ],
      "name": "StringTooLong",
      "type": "error"
    },
    {
      "inputs": [
        {
          "internalType": "uint256",
          "name": "expiry",
          "type": "uint256"
        }
      ],
      "name": "VotesExpiredSignature",
      "type": "error"
    },
    {
      "anonymous": false,
      "inputs": [
        {
          "indexed": true,
          "internalType": "address",
          "name": "owner",
          "type": "address"
        },
        {
          "indexed": true,
          "internalType": "address",
          "name": "spender",
          "type": "address"
        },
        {
          "indexed": false,
          "internalType": "uint256",
          "name": "value",
          "type": "uint256"
        }
      ],
      "name": "Approval",
      "type": "event"
    },
    {
      "anonymous": false,
      "inputs": [
        {
          "indexed": true,
          "internalType": "address",
          "name": "delegator",
          "type": "address"
        },
        {
          "indexed": true,
          "internalType": "address",
          "name": "fromDelegate",
          "type": "address"
        },
        {
          "indexed": true,
          "internalType": "address",
          "name": "toDelegate",
          "type": "address"
        }
      ],
      "name": "DelegateChanged",
      "type": "event"
    },
    {
      "anonymous": false,
      "inputs": [
        {
          "indexed": true,
          "internalType": "address",
          "name": "delegate",
          "type": "address"
        },
        {
          "indexed": false,
          "internalType": "uint256",
          "name": "previousVotes",
          "type": "uint256"
        },
        {
          "indexed": false,
          "internalType": "uint256",
          "name": "newVotes",
          "type": "uint256"
        }
      ],
      "name": "DelegateVotesChanged",
      "type": "event"
    },
    {
      "anonymous": false,
      "inputs": [],
      "name": "EIP712DomainChanged",
      "type": "event"
    },
    {
      "anonymous": false,
      "inputs": [
        {
          "indexed": true,
          "internalType": "address",
          "name": "previousOwner",
          "type": "address"
        },
        {
          "indexed": true,
          "internalType": "address",
          "name": "newOwner",
          "type": "address"
        }
      ],
      "name": "OwnershipTransferred",
      "type": "event"
    },
    {
      "anonymous": false,
      "inputs": [
        {
          "indexed": true,
          "internalType": "address",
          "name": "from",
          "type": "address"
        },
        {
          "indexed": true,
          "internalType": "address",
          "name": "to",
          "type": "address"
        },
        {
          "indexed": false,
          "internalType": "uint256",
          "name": "value",
          "type": "uint256"
        }
      ],
      "name": "Transfer",
      "type": "event"
    },
    {
      "inputs": [],
      "name": "CLOCK_MODE",
      "outputs": [
        {
          "internalType": "string",
          "name": "",
          "type": "string"
        }
      ],
      "stateMutability": "view",
      "type": "function"
    },
    {
      "inputs": [],
      "name": "DOMAIN_SEPARATOR",
      "outputs": [
        {
          "internalType": "bytes32",
          "name": "",
          "type": "bytes32"
        }
      ],
      "stateMutability": "view",
      "type": "function"
    },
    {
      "inputs": [
        {
          "internalType": "address",
          "name": "owner",
          "type": "address"
        },
        {
          "internalType": "address",
          "name": "spender",
          "type": "address"
        }
      ],
      "name": "allowance",
      "outputs": [
        {
          "internalType": "uint256",
          "name": "",
          "type": "uint256"
        }
      ],
      "stateMutability": "view",
      "type": "function"
    },
    {
      "inputs": [
        {
          "internalType": "address",
          "name": "spender",
          "type": "address"
        },
        {
          "internalType": "uint256",
          "name": "value",
          "type": "uint256"
        }
      ],
      "name": "approve",
      "outputs": [
        {
          "internalType": "bool",
          "name": "",
          "type": "bool"
        }
      ],
      "stateMutability": "nonpayable",
      "type": "function"
    },
    {
      "inputs": [
        {
          "internalType": "address",
          "name": "account",
          "type": "address"
        }
      ],
      "name": "balanceOf",
      "outputs": [
        {
          "internalType": "uint256",
          "name": "",
          "type": "uint256"
        }
      ],
      "stateMutability": "view",
      "type": "function"
    },
    {
      "inputs": [
        {
          "internalType": "uint256",
          "name": "value",
          "type": "uint256"
        }
      ],
      "name": "burn",
      "outputs": [],
      "stateMutability": "nonpayable",
      "type": "function"
    },
    {
      "inputs": [
        {
          "internalType": "address",
          "name": "account",
          "type": "address"
        },
        {
          "internalType": "uint256",
          "name": "value",
          "type": "uint256"
        }
      ],
      "name": "burnFrom",
      "outputs": [],
      "stateMutability": "nonpayable",
      "type": "function"
    },
    {
      "inputs": [
        {
          "internalType": "address",
          "name": "account",
          "type": "address"
        },
        {
          "internalType": "uint32",
          "name": "pos",
          "type": "uint32"
        }
      ],
      "name": "checkpoints",
      "outputs": [
        {
          "components": [
            {
              "internalType": "uint48",
              "name": "_key",
              "type": "uint48"
            },
            {
              "internalType": "uint208",
              "name": "_value",
              "type": "uint208"
            }
          ],
          "internalType": "struct Checkpoints.Checkpoint208",
          "name": "",
          "type": "tuple"
        }
      ],
      "stateMutability": "view",
      "type": "function"
    },
    {
      "inputs": [],
      "name": "clock",
      "outputs": [
        {
          "internalType": "uint48",
          "name": "",
          "type": "uint48"
        }
      ],
      "stateMutability": "view",
      "type": "function"
    },
    {
      "inputs": [],
      "name": "decimals",
      "outputs": [
        {
          "internalType": "uint8",
          "name": "",
          "type": "uint8"
        }
      ],
      "stateMutability": "view",
      "type": "function"
    },
    {
      "inputs": [
        {
          "internalType": "address",
          "name": "delegatee",
          "type": "address"
        }
      ],
      "name": "delegate",
      "outputs": [],
      "stateMutability": "nonpayable",
      "type": "function"
    },
    {
      "inputs": [
        {
          "internalType": "address",
          "name": "delegatee",
          "type": "address"
        },
        {
          "internalType": "uint256",
          "name": "nonce",
          "type": "uint256"
        },
        {
          "internalType": "uint256",
          "name": "expiry",
          "type": "uint256"
        },
        {
          "internalType": "uint8",
          "name": "v",
          "type": "uint8"
        },
        {
          "internalType": "bytes32",
          "name": "r",
          "type": "bytes32"
        },
        {
          "internalType": "bytes32",
          "name": "s",
          "type": "bytes32"
        }
      ],
      "name": "delegateBySig",
      "outputs": [],
      "stateMutability": "nonpayable",
      "type": "function"
    },
    {
      "inputs": [
        {
          "internalType": "address",
          "name": "account",
          "type": "address"
        }
      ],
      "name": "delegates",
      "outputs": [
        {
          "internalType": "address",
          "name": "",
          "type": "address"
        }
      ],
      "stateMutability": "view",
      "type": "function"
    },
    {
      "inputs": [],
      "name": "eip712Domain",
      "outputs": [
        {
          "internalType": "bytes1",
          "name": "fields",
          "type": "bytes1"
        },
        {
          "internalType": "string",
          "name": "name",
          "type": "string"
        },
        {
          "internalType": "string",
          "name": "version",
          "type": "string"
        },
        {
          "internalType": "uint256",
          "name": "chainId",
          "type": "uint256"
        },
        {
          "internalType": "address",
          "name": "verifyingContract",
          "type": "address"
        },
        {
          "internalType": "bytes32",
          "name": "salt",
          "type": "bytes32"
        },
        {
          "internalType": "uint256[]",
          "name": "extensions",
          "type": "uint256[]"
        }
      ],
      "stateMutability": "view",
      "type": "function"
    },
    {
      "inputs": [
        {
          "internalType": "uint256",
          "name": "timepoint",
          "type": "uint256"
        }
      ],
      "name": "getPastTotalSupply",
      "outputs": [
        {
          "internalType": "uint256",
          "name": "",
          "type": "uint256"
        }
      ],
      "stateMutability": "view",
      "type": "function"
    },
    {
      "inputs": [
        {
          "internalType": "address",
          "name": "account",
          "type": "address"
        },
        {
          "internalType": "uint256",
          "name": "timepoint",
          "type": "uint256"
        }
      ],
      "name": "getPastVotes",
      "outputs": [
        {
          "internalType": "uint256",
          "name": "",
          "type": "uint256"
        }
      ],
      "stateMutability": "view",
      "type": "function"
    },
    {
      "inputs": [
        {
          "internalType": "address",
          "name": "account",
          "type": "address"
        }
      ],
      "name": "getVotes",
      "outputs": [
        {
          "internalType": "uint256",
          "name": "",
          "type": "uint256"
        }
      ],
      "stateMutability": "view",
      "type": "function"
    },
    {
      "inputs": [
        {
          "internalType": "address",
          "name": "to",
          "type": "address"
        },
        {
          "internalType": "uint256",
          "name": "amount",
          "type": "uint256"
        }
      ],
      "name": "mint",
      "outputs": [],
      "stateMutability": "nonpayable",
      "type": "function"
    },
    {
      "inputs": [],
      "name": "name",
      "outputs": [
        {
          "internalType": "string",
          "name": "",
          "type": "string"
        }
      ],
      "stateMutability": "view",
      "type": "function"
    },
    {
      "inputs": [
        {
          "internalType": "address",
          "name": "owner",
          "type": "address"
        }
      ],
      "name": "nonces",
      "outputs": [
        {
          "internalType": "uint256",
          "name": "",
          "type": "uint256"
        }
      ],
      "stateMutability": "view",
      "type": "function"
    },
    {
      "inputs": [
        {
          "internalType": "address",
          "name": "account",
          "type": "address"
        }
      ],
      "name": "numCheckpoints",
      "outputs": [
        {
          "internalType": "uint32",
          "name": "",
          "type": "uint32"
        }
      ],
      "stateMutability": "view",
      "type": "function"
    },
    {
      "inputs": [],
      "name": "owner",
      "outputs": [
        {
          "internalType": "address",
          "name": "",
          "type": "address"
        }
      ],
      "stateMutability": "view",
      "type": "function"
    },
    {
      "inputs": [
        {
          "internalType": "address",
          "name": "owner",
          "type": "address"
        },
        {
          "internalType": "address",
          "name": "spender",
          "type": "address"
        },
        {
          "internalType": "uint256",
          "name": "value",
          "type": "uint256"
        },
        {
          "internalType": "uint256",
          "name": "deadline",
          "type": "uint256"
        },
        {
          "internalType": "uint8",
          "name": "v",
          "type": "uint8"
        },
        {
          "internalType": "bytes32",
          "name": "r",
          "type": "bytes32"
        },
        {
          "internalType": "bytes32",
          "name": "s",
          "type": "bytes32"
        }
      ],
      "name": "permit",
      "outputs": [],
      "stateMutability": "nonpayable",
      "type": "function"
    },
    {
      "inputs": [],
      "name": "renounceOwnership",
      "outputs": [],
      "stateMutability": "nonpayable",
      "type": "function"
    },
    {
      "inputs": [],
      "name": "symbol",
      "outputs": [
        {
          "internalType": "string",
          "name": "",
          "type": "string"
        }
      ],
      "stateMutability": "view",
      "type": "function"
    },
    {
      "inputs": [],
      "name": "totalSupply",
      "outputs": [
        {
          "internalType": "uint256",
          "name": "",
          "type": "uint256"
        }
      ],
      "stateMutability": "view",
      "type": "function"
    },
    {
      "inputs": [
        {
          "internalType": "address",
          "name": "to",
          "type": "address"
        },
        {
          "internalType": "uint256",
          "name": "amount",
          "type": "uint256"
        }
      ],
      "name": "transfer",
      "outputs": [
        {
          "internalType": "bool",
          "name": "",
          "type": "bool"
        }
      ],
      "stateMutability": "nonpayable",
      "type": "function"
    },
    {
      "inputs": [
        {
          "internalType": "address",
          "name": "from",
          "type": "address"
        },
        {
          "internalType": "address",
          "name": "to",
          "type": "address"
        },
        {
          "internalType": "uint256",
          "name": "value",
          "type": "uint256"
        }
      ],
      "name": "transferFrom",
      "outputs": [
        {
          "internalType": "bool",
          "name": "",
          "type": "bool"
        }
      ],
      "stateMutability": "nonpayable",
      "type": "function"
    },
    {
      "inputs": [
        {
          "internalType": "address",
          "name": "newOwner",
          "type": "address"
        }
      ],
      "name": "transferOwnership",
      "outputs": [],
      "stateMutability": "nonpayable",
      "type": "function"
    }
  ],
  "bytecode": "0x6101606040523480156200001257600080fd5b506040516200304138038062003041833981016040819052620000359162000ae1565b6040518060400160405280600981526020016826bca7212a37b5b2b760b91b81525080604051806040016040528060018152602001603160f81b815250836040518060400160405280600981526020016826bca7212a37b5b2b760b91b815250604051806040016040528060048152602001631353909560e21b8152508160039081620000c3919062000bb0565b506004620000d2828262000bb0565b5050506001600160a01b0381166200010557604051631e4fbdf760e01b8152600060048201526024015b60405180910390fd5b62000110816200024b565b506200011e8260066200029d565b610120526200012f8160076200029d565b61014052815160208084019190912060e052815190820120610100524660a052620001bd60e05161010051604080517f8b73c3c69bb8fe3d512ecc4cf759cc79239f7b179b0ffacaa9a75d522b39400f60208201529081019290925260608201524660808201523060a082015260009060c00160405160208183030381529060405280519060200120905090565b60805250503060c05250620001f133620001da6012600a62000d8f565b620001eb9064e8d4a5100062000da0565b620002d6565b33158015906200020f5750620002073362000314565b63ffffffff16155b8015620002325750336000908152600960205260409020546001600160a01b0316155b15620002445762000244338062000321565b5062000ea8565b600580546001600160a01b038381166001600160a01b0319831681179093556040519116919082907f8be0079c531659141344cd1fd0a4f28419497f9722a3daafe3b4186f6b6457e090600090a35050565b6000602083511015620002bd57620002b5836200039c565b9050620002d0565b81620002ca848262000bb0565b5060ff90505b92915050565b6001600160a01b038216620003025760405163ec442f0560e01b815260006004820152602401620000fc565b6200031060008383620003df565b5050565b6000620002d082620003ec565b6001600160a01b0382811660008181526009602052604080822080548686166001600160a01b0319821681179092559151919094169392849290917f3134e8a2e6d97e929a7e54011ea5485d7d196dd5f0ba4d4ef95803e8e3fc257f9190a4620003978183620003918662000410565b6200042f565b505050565b600080829050601f81511115620003ca578260405163305a27a960e01b8152600401620000fc919062000dba565b8051620003d78262000e0a565b179392505050565b620003978383836200059c565b6001600160a01b0381166000908152600a6020526040812054620002d0906200060b565b6001600160a01b038116600090815260208190526040812054620002d0565b816001600160a01b0316836001600160a01b031614158015620004525750600081115b1562000397576001600160a01b03831615620004fb576001600160a01b0383166000908152600a6020908152604082208291620004a6919062000642901b62000afc17620004a08662000657565b6200068d565b6001600160d01b031691506001600160d01b03169150846001600160a01b0316600080516020620030218339815191528383604051620004f0929190918252602082015260400190565b60405180910390a250505b6001600160a01b0382161562000397576001600160a01b0382166000908152600a6020908152604082208291620005439190620006ca901b62000b0817620004a08662000657565b6001600160d01b031691506001600160d01b03169150836001600160a01b03166000805160206200302183398151915283836040516200058d929190918252602082015260400190565b60405180910390a25050505050565b620005a9838383620006d8565b6001600160a01b038316620005fe576000620005c460025490565b90506001600160d01b0380821115620005fb57604051630e58ae9360e11b81526004810183905260248101829052604401620000fc565b50505b620003978383836200080b565b600063ffffffff8211156200063e576040516306dfcc6560e41b81526020600482015260248101839052604401620000fc565b5090565b600062000650828462000e2f565b9392505050565b60006001600160d01b038211156200063e576040516306dfcc6560e41b815260d0600482015260248101839052604401620000fc565b600080620006bd6200069e6200089d565b620006b4620006ad88620008ae565b868860201c565b879190620008fd565b915091505b935093915050565b600062000650828462000e59565b6001600160a01b03831662000707578060026000828254620006fb919062000e7c565b909155506200077b9050565b6001600160a01b038316600090815260208190526040902054818110156200075c5760405163391434e360e21b81526001600160a01b03851660048201526024810182905260448101839052606401620000fc565b6001600160a01b03841660009081526020819052604090209082900390555b6001600160a01b0382166200079957600280548290039055620007b8565b6001600160a01b03821660009081526020819052604090208054820190555b816001600160a01b0316836001600160a01b03167fddf252ad1be2c89b69c2b068fc378daa952ba7f163c4a11628f55a4df523b3ef83604051620007fe91815260200190565b60405180910390a3505050565b6001600160a01b0383166200083a5762000837600b62000b08620006ca60201b17620004a08462000657565b50505b6001600160a01b038216620008695762000866600b62000afc6200064260201b17620004a08462000657565b50505b6001600160a01b0383811660009081526009602052604080822054858416835291205462000397929182169116836200042f565b6000620008a96200090d565b905090565b80546000908015620008f457620008da83620008cc60018462000e92565b600091825260209091200190565b54660100000000000090046001600160d01b031662000650565b60009392505050565b600080620006bd8585856200091a565b6000620008a94362000aac565b82546000908190801562000a4d5760006200093c87620008cc60018562000e92565b60408051808201909152905465ffffffffffff80821680845266010000000000009092046001600160d01b0316602084015291925090871610156200099457604051632520601d60e01b815260040160405180910390fd5b805165ffffffffffff808816911603620009e85784620009bb88620008cc60018662000e92565b80546001600160d01b039290921666010000000000000265ffffffffffff90921691909117905562000a3c565b6040805180820190915265ffffffffffff80881682526001600160d01b0380881660208085019182528b54600181018d5560008d815291909120945191519092166601000000000000029216919091179101555b602001519250839150620006c29050565b50506040805180820190915265ffffffffffff80851682526001600160d01b0380851660208085019182528854600181018a5560008a8152918220955192519093166601000000000000029190931617920191909155905081620006c2565b600065ffffffffffff8211156200063e576040516306dfcc6560e41b81526030600482015260248101839052604401620000fc565b60006020828403121562000af457600080fd5b81516001600160a01b03811681146200065057600080fd5b634e487b7160e01b600052604160045260246000fd5b600181811c9082168062000b3757607f821691505b60208210810362000b5857634e487b7160e01b600052602260045260246000fd5b50919050565b601f8211156200039757600081815260208120601f850160051c8101602086101562000b875750805b601f850160051c820191505b8181101562000ba85782815560010162000b93565b505050505050565b81516001600160401b0381111562000bcc5762000bcc62000b0c565b62000be48162000bdd845462000b22565b8462000b5e565b602080601f83116001811462000c1c576000841562000c035750858301515b600019600386901b1c1916600185901b17855562000ba8565b600085815260208120601f198616915b8281101562000c4d5788860151825594840194600190910190840162000c2c565b508582101562000c6c5787850151600019600388901b60f8161c191681555b5050505050600190811b01905550565b634e487b7160e01b600052601160045260246000fd5b600181815b8085111562000cd357816000190482111562000cb75762000cb762000c7c565b8085161562000cc557918102915b93841c939080029062000c97565b509250929050565b60008262000cec57506001620002d0565b8162000cfb57506000620002d0565b816001811462000d14576002811462000d1f5762000d3f565b6001915050620002d0565b60ff84111562000d335762000d3362000c7c565b50506001821b620002d0565b5060208310610133831016604e8410600b841016171562000d64575081810a620002d0565b62000d70838362000c92565b806000190482111562000d875762000d8762000c7c565b029392505050565b60006200065060ff84168362000cdb565b8082028115828204841417620002d057620002d062000c7c565b600060208083528351808285015260005b8181101562000de95785810183015185820160400152820162000dcb565b506000604082860101526040601f19601f8301168501019250505092915050565b8051602080830151919081101562000b585760001960209190910360031b1b16919050565b6001600160d01b0382811682821603908082111562000e525762000e5262000c7c565b5092915050565b6001600160d01b0381811683821601908082111562000e525762000e5262000c7c565b80820180821115620002d057620002d062000c7c565b81810381811115620002d057620002d062000c7c565b60805160a05160c05160e05161010051610120516101405161211e62000f03600039600061100001526000610fd301526000610cdd01526000610cb501526000610c1001526000610c3a01526000610c64015261211e6000f3fe608060405234801561001057600080fd5b50600436106101cf5760003560e01c8063715018a61161010457806395d89b41116100a2578063d505accf11610071578063d505accf146103f0578063dd62ed3e14610403578063f1127ed81461043c578063f2fde38b1461047b57600080fd5b806395d89b41146103af5780639ab24eb0146103b7578063a9059cbb146103ca578063c3cda520146103dd57600080fd5b806384b0196e116100de57806384b0196e146103515780638da5cb5b1461036c5780638e539e8c1461037d57806391ddadf41461039057600080fd5b8063715018a61461032357806379cc67901461032b5780637ecebe001461033e57600080fd5b806340c10f1911610171578063587cde1e1161014b578063587cde1e146102945780635c19a95c146102bf5780636fcfff45146102d257806370a08231146102fa57600080fd5b806340c10f191461026457806342966c68146102795780634bf5d7e91461028c57600080fd5b806323b872dd116101ad57806323b872dd14610227578063313ce5671461023a5780633644e515146102495780633a46b1a81461025157600080fd5b806306fdde03146101d4578063095ea7b3146101f257806318160ddd14610215575b600080fd5b6101dc61048e565b6040516101e99190611d22565b60405180910390f35b610205610200366004611d51565b610520565b60405190151581526020016101e9565b6002545b6040519081526020016101e9565b610205610235366004611d7b565b61053a565b604051601281526020016101e9565b61021961055e565b61021961025f366004611d51565b61056d565b610277610272366004611d51565b6105f3565b005b610277610287366004611db7565b610659565b6101dc610666565b6102a76102a2366004611dd0565b6106de565b6040516001600160a01b0390911681526020016101e9565b6102776102cd366004611dd0565b6106fc565b6102e56102e0366004611dd0565b610707565b60405163ffffffff90911681526020016101e9565b610219610308366004611dd0565b6001600160a01b031660009081526020819052604090205490565b610277610712565b610277610339366004611d51565b610726565b61021961034c366004611dd0565b61073b565b610359610746565b6040516101e99796959493929190611deb565b6005546001600160a01b03166102a7565b61021961038b366004611db7565b61078c565b6103986107f6565b60405165ffffffffffff90911681526020016101e9565b6101dc610800565b6102196103c5366004611dd0565b61080f565b6102056103d8366004611d51565b61083f565b6102776103eb366004611e92565b6108a5565b6102776103fe366004611eea565b610962565b610219610411366004611f54565b6001600160a01b03918216600090815260016020908152604080832093909416825291909152205490565b61044f61044a366004611f87565b610a9c565b60408051825165ffffffffffff1681526020928301516001600160d01b031692810192909252016101e9565b610277610489366004611dd0565b610ac1565b60606003805461049d90611fc7565b80601f01602080910402602001604051908101604052809291908181526020018280546104c990611fc7565b80156105165780601f106104eb57610100808354040283529160200191610516565b820191906000526020600020905b8154815290600101906020018083116104f957829003601f168201915b5050505050905090565b60003361052e818585610b14565b60019150505b92915050565b600033610548858285610b26565b610553858585610ba4565b506001949350505050565b6000610568610c03565b905090565b6000806105786107f6565b90508065ffffffffffff1683106105b857604051637669fc0f60e11b81526004810184905265ffffffffffff821660248201526044015b60405180910390fd5b6105e26105c484610d2e565b6001600160a01b0386166000908152600a6020526040902090610d65565b6001600160d01b0316949350505050565b6105fb610e1b565b6106058282610e48565b6001600160a01b03821615801590610629575061062182610707565b63ffffffff16155b80156106465750600061063b836106de565b6001600160a01b0316145b15610655576106558283610e7e565b5050565b6106633382610ef9565b50565b6060610670610f2f565b65ffffffffffff166106806107f6565b65ffffffffffff16146106a6576040516301bfc1c560e61b815260040160405180910390fd5b5060408051808201909152601d81527f6d6f64653d626c6f636b6e756d6265722666726f6d3d64656661756c74000000602082015290565b6001600160a01b039081166000908152600960205260409020541690565b336106558183610e7e565b600061053482610f3a565b61071a610e1b565b6107246000610f5c565b565b610731823383610b26565b6106558282610ef9565b600061053482610fae565b60006060806000806000606061075a610fcc565b610762610ff9565b60408051600080825260208201909252600f60f81b9b939a50919850469750309650945092509050565b6000806107976107f6565b90508065ffffffffffff1683106107d257604051637669fc0f60e11b81526004810184905265ffffffffffff821660248201526044016105af565b6107e66107de84610d2e565b600b90610d65565b6001600160d01b03169392505050565b6000610568610f2f565b60606004805461049d90611fc7565b6001600160a01b0381166000908152600a6020526040812061083090611026565b6001600160d01b031692915050565b600061084c338484610ba4565b6001600160a01b03831615801590610870575061086883610707565b63ffffffff16155b801561088d57506000610882846106de565b6001600160a01b0316145b1561089c5761089c8384610e7e565b50600192915050565b834211156108c957604051632341d78760e11b8152600481018590526024016105af565b604080517fe48329057bfd03d55e49b547132e39cffd9c1820ad7b9d4c5307691425d15adf60208201526001600160a01b0388169181019190915260608101869052608081018590526000906109439061093b9060a0016040516020818303038152906040528051906020012061105f565b85858561108c565b905061094f81876110ba565b6109598188610e7e565b50505050505050565b834211156109865760405163313c898160e11b8152600481018590526024016105af565b60007f6e71edae12b1b97f4d1f60370fef10105fa2faae0126114a169c64845d6126c98888886109d38c6001600160a01b0316600090815260086020526040902080546001810190915590565b6040805160208101969096526001600160a01b0394851690860152929091166060840152608083015260a082015260c0810186905260e0016040516020818303038152906040528051906020012090506000610a2e8261105f565b90506000610a3e8287878761108c565b9050896001600160a01b0316816001600160a01b031614610a85576040516325c0072360e11b81526001600160a01b0380831660048301528b1660248201526044016105af565b610a908a8a8a610b14565b50505050505050505050565b6040805180820190915260008082526020820152610aba838361110d565b9392505050565b610ac9610e1b565b6001600160a01b038116610af357604051631e4fbdf760e01b8152600060048201526024016105af565b61066381610f5c565b6000610aba8284612017565b6000610aba828461203e565b610b218383836001611143565b505050565b6001600160a01b038381166000908152600160209081526040808320938616835292905220546000198114610b9e5781811015610b8f57604051637dc7a0d960e11b81526001600160a01b038416600482015260248101829052604481018390526064016105af565b610b9e84848484036000611143565b50505050565b6001600160a01b038316610bce57604051634b637e8f60e11b8152600060048201526024016105af565b6001600160a01b038216610bf85760405163ec442f0560e01b8152600060048201526024016105af565b610b21838383611218565b6000306001600160a01b037f000000000000000000000000000000000000000000000000000000000000000016148015610c5c57507f000000000000000000000000000000000000000000000000000000000000000046145b15610c8657507f000000000000000000000000000000000000000000000000000000000000000090565b610568604080517f8b73c3c69bb8fe3d512ecc4cf759cc79239f7b179b0ffacaa9a75d522b39400f60208201527f0000000000000000000000000000000000000000000000000000000000000000918101919091527f000000000000000000000000000000000000000000000000000000000000000060608201524660808201523060a082015260009060c00160405160208183030381529060405280519060200120905090565b600065ffffffffffff821115610d61576040516306dfcc6560e41b815260306004820152602481018390526044016105af565b5090565b815460009081816005811115610dc4576000610d8084611223565b610d8a908561205e565b60008881526020902090915081015465ffffffffffff9081169087161015610db457809150610dc2565b610dbf816001612071565b92505b505b6000610dd28787858561130b565b90508015610e0d57610df787610de960018461205e565b600091825260209091200190565b54600160301b90046001600160d01b0316610e10565b60005b979650505050505050565b6005546001600160a01b031633146107245760405163118cdaa760e01b81523360048201526024016105af565b6001600160a01b038216610e725760405163ec442f0560e01b8152600060048201526024016105af565b61065560008383611218565b6000610e89836106de565b6001600160a01b0384811660008181526009602052604080822080546001600160a01b031916888616908117909155905194955093928516927f3134e8a2e6d97e929a7e54011ea5485d7d196dd5f0ba4d4ef95803e8e3fc257f9190a4610b218183610ef48661136d565b61138b565b6001600160a01b038216610f2357604051634b637e8f60e11b8152600060048201526024016105af565b61065582600083611218565b600061056843610d2e565b6001600160a01b0381166000908152600a6020526040812054610534906114f7565b600580546001600160a01b038381166001600160a01b0319831681179093556040519116919082907f8be0079c531659141344cd1fd0a4f28419497f9722a3daafe3b4186f6b6457e090600090a35050565b6001600160a01b038116600090815260086020526040812054610534565b60606105687f00000000000000000000000000000000000000000000000000000000000000006006611528565b60606105687f00000000000000000000000000000000000000000000000000000000000000006007611528565b805460009080156110565761104083610de960018461205e565b54600160301b90046001600160d01b0316610aba565b60009392505050565b600061053461106c610c03565b8360405161190160f01b8152600281019290925260228201526042902090565b60008060008061109e888888886115d3565b9250925092506110ae82826116a2565b50909695505050505050565b6001600160a01b0382166000908152600860205260409020805460018101909155818114610b21576040516301d4b62360e61b81526001600160a01b0384166004820152602481018290526044016105af565b60408051808201909152600080825260208201526001600160a01b0383166000908152600a60205260409020610aba908361175b565b6001600160a01b03841661116d5760405163e602df0560e01b8152600060048201526024016105af565b6001600160a01b03831661119757604051634a1406b160e11b8152600060048201526024016105af565b6001600160a01b0380851660009081526001602090815260408083209387168352929052208290558015610b9e57826001600160a01b0316846001600160a01b03167f8c5be1e5ebec7d5bd14f71427d1e84f3dd0314c0f7b2291e5b200ac8c7c3b9258460405161120a91815260200190565b60405180910390a350505050565b610b218383836117cb565b60008160000361123557506000919050565b6000600161124284611832565b901c6001901b9050600181848161125b5761125b612084565b048201901c9050600181848161127357611273612084565b048201901c9050600181848161128b5761128b612084565b048201901c905060018184816112a3576112a3612084565b048201901c905060018184816112bb576112bb612084565b048201901c905060018184816112d3576112d3612084565b048201901c905060018184816112eb576112eb612084565b048201901c9050610aba8182858161130557611305612084565b046118c6565b60005b8183101561136557600061132284846118dc565b60008781526020902090915065ffffffffffff86169082015465ffffffffffff1611156113515780925061135f565b61135c816001612071565b93505b5061130e565b509392505050565b6001600160a01b038116600090815260208190526040812054610534565b816001600160a01b0316836001600160a01b0316141580156113ad5750600081115b15610b21576001600160a01b03831615611455576001600160a01b0383166000908152600a6020526040812081906113f090610afc6113eb866118f7565b61192b565b6001600160d01b031691506001600160d01b03169150846001600160a01b03167fdec2bacdd2f05b59de34da9b523dff8be42e5e38e818c82fdb0bae774387a724838360405161144a929190918252602082015260400190565b60405180910390a250505b6001600160a01b03821615610b21576001600160a01b0382166000908152600a60205260408120819061148e90610b086113eb866118f7565b6001600160d01b031691506001600160d01b03169150836001600160a01b03167fdec2bacdd2f05b59de34da9b523dff8be42e5e38e818c82fdb0bae774387a72483836040516114e8929190918252602082015260400190565b60405180910390a25050505050565b600063ffffffff821115610d61576040516306dfcc6560e41b815260206004820152602481018390526044016105af565b606060ff83146115425761153b83611964565b9050610534565b81805461154e90611fc7565b80601f016020809104026020016040519081016040528092919081815260200182805461157a90611fc7565b80156115c75780601f1061159c576101008083540402835291602001916115c7565b820191906000526020600020905b8154815290600101906020018083116115aa57829003601f168201915b50505050509050610534565b600080807f7fffffffffffffffffffffffffffffff5d576e7357a4501ddfe92f46681b20a084111561160e5750600091506003905082611698565b604080516000808252602082018084528a905260ff891692820192909252606081018790526080810186905260019060a0016020604051602081039080840390855afa158015611662573d6000803e3d6000fd5b5050604051601f1901519150506001600160a01b03811661168e57506000925060019150829050611698565b9250600091508190505b9450945094915050565b60008260038111156116b6576116b661209a565b036116bf575050565b60018260038111156116d3576116d361209a565b036116f15760405163f645eedf60e01b815260040160405180910390fd5b60028260038111156117055761170561209a565b036117265760405163fce698f760e01b8152600481018290526024016105af565b600382600381111561173a5761173a61209a565b03610655576040516335e2f38360e21b8152600481018290526024016105af565b6040805180820190915260008082526020820152826000018263ffffffff168154811061178a5761178a6120b0565b60009182526020918290206040805180820190915291015465ffffffffffff81168252600160301b90046001600160d01b0316918101919091529392505050565b6117d68383836119a3565b6001600160a01b0383166118275760006117ef60025490565b90506001600160d01b038082111561182457604051630e58ae9360e11b815260048101839052602481018290526044016105af565b50505b610b21838383611acd565b600080608083901c1561184757608092831c92015b604083901c1561185957604092831c92015b602083901c1561186b57602092831c92015b601083901c1561187d57601092831c92015b600883901c1561188f57600892831c92015b600483901c156118a157600492831c92015b600283901c156118b357600292831c92015b600183901c156105345760010192915050565b60008183106118d55781610aba565b5090919050565b60006118eb60028484186120c6565b610aba90848416612071565b60006001600160d01b03821115610d61576040516306dfcc6560e41b815260d06004820152602481018390526044016105af565b6000806119576119396107f6565b61194f61194588611026565b868863ffffffff16565b879190611b2c565b915091505b935093915050565b6060600061197183611b3a565b604080516020808252818301909252919250600091906020820181803683375050509182525060208101929092525090565b6001600160a01b0383166119ce5780600260008282546119c39190612071565b90915550611a409050565b6001600160a01b03831660009081526020819052604090205481811015611a215760405163391434e360e21b81526001600160a01b038516600482015260248101829052604481018390526064016105af565b6001600160a01b03841660009081526020819052604090209082900390555b6001600160a01b038216611a5c57600280548290039055611a7b565b6001600160a01b03821660009081526020819052604090208054820190555b816001600160a01b0316836001600160a01b03167fddf252ad1be2c89b69c2b068fc378daa952ba7f163c4a11628f55a4df523b3ef83604051611ac091815260200190565b60405180910390a3505050565b6001600160a01b038316611aef57611aec600b610b086113eb846118f7565b50505b6001600160a01b038216611b1157611b0e600b610afc6113eb846118f7565b50505b610b21611b1d846106de565b611b26846106de565b8361138b565b600080611957858585611b62565b600060ff8216601f81111561053457604051632cd44ac360e21b815260040160405180910390fd5b825460009081908015611c81576000611b8087610de960018561205e565b60408051808201909152905465ffffffffffff808216808452600160301b9092046001600160d01b031660208401529192509087161015611bd457604051632520601d60e01b815260040160405180910390fd5b805165ffffffffffff808816911603611c205784611bf788610de960018661205e565b80546001600160d01b0392909216600160301b0265ffffffffffff909216919091179055611c71565b6040805180820190915265ffffffffffff80881682526001600160d01b0380881660208085019182528b54600181018d5560008d81529190912094519151909216600160301b029216919091179101555b60200151925083915061195c9050565b50506040805180820190915265ffffffffffff80851682526001600160d01b0380851660208085019182528854600181018a5560008a815291822095519251909316600160301b02919093161792019190915590508161195c565b6000815180845260005b81811015611d0257602081850181015186830182015201611ce6565b506000602082860101526020601f19601f83011685010191505092915050565b602081526000610aba6020830184611cdc565b80356001600160a01b0381168114611d4c57600080fd5b919050565b60008060408385031215611d6457600080fd5b611d6d83611d35565b946020939093013593505050565b600080600060608486031215611d9057600080fd5b611d9984611d35565b9250611da760208501611d35565b9150604084013590509250925092565b600060208284031215611dc957600080fd5b5035919050565b600060208284031215611de257600080fd5b610aba82611d35565b60ff60f81b881681526000602060e081840152611e0b60e084018a611cdc565b8381036040850152611e1d818a611cdc565b606085018990526001600160a01b038816608086015260a0850187905284810360c0860152855180825283870192509083019060005b81811015611e6f57835183529284019291840191600101611e53565b50909c9b505050505050505050505050565b803560ff81168114611d4c57600080fd5b60008060008060008060c08789031215611eab57600080fd5b611eb487611d35565b95506020870135945060408701359350611ed060608801611e81565b92506080870135915060a087013590509295509295509295565b600080600080600080600060e0888a031215611f0557600080fd5b611f0e88611d35565b9650611f1c60208901611d35565b95506040880135945060608801359350611f3860808901611e81565b925060a0880135915060c0880135905092959891949750929550565b60008060408385031215611f6757600080fd5b611f7083611d35565b9150611f7e60208401611d35565b90509250929050565b60008060408385031215611f9a57600080fd5b611fa383611d35565b9150602083013563ffffffff81168114611fbc57600080fd5b809150509250929050565b600181811c90821680611fdb57607f821691505b602082108103611ffb57634e487b7160e01b600052602260045260246000fd5b50919050565b634e487b7160e01b600052601160045260246000fd5b6001600160d01b0382811682821603908082111561203757612037612001565b5092915050565b6001600160d01b0381811683821601908082111561203757612037612001565b8181038181111561053457610534612001565b8082018082111561053457610534612001565b634e487b7160e01b600052601260045260246000fd5b634e487b7160e01b600052602160045260246000fd5b634e487b7160e01b600052603260045260246000fd5b6000826120e357634e487b7160e01b600052601260045260246000fd5b50049056fea2646970667358221220f57934ce51fcd605ad0d170820650a5beeef0358ec9d022c6c720bcb057c762c64736f6c63430008150033dec2bacdd2f05b59de34da9b523dff8be42e5e38e818c82fdb0bae774387a724",
  "linkReferences": {},
  "deployedLinkReferences": {}
}